{
  "_format": "hh-sol-artifact-1",
  "contractName": "DataSetPortal",
  "sourceName": "contracts/DataSetPortal.sol",
  "abi": [
    {
      "inputs": [],
      "stateMutability": "payable",
      "type": "constructor"
    },
    {
      "anonymous": false,
      "inputs": [
        {
          "indexed": true,
          "internalType": "address",
          "name": "from",
          "type": "address"
        },
        {
          "indexed": false,
          "internalType": "uint256",
          "name": "timestamp",
          "type": "uint256"
        },
        {
          "components": [
            {
              "internalType": "address",
              "name": "user_address",
              "type": "address"
            },
            {
              "internalType": "string",
              "name": "name",
              "type": "string"
            },
            {
              "internalType": "int256",
              "name": "size",
              "type": "int256"
            },
            {
              "internalType": "string",
              "name": "accuracy_score",
              "type": "string"
            },
            {
              "internalType": "string",
              "name": "data_type",
              "type": "string"
            },
            {
              "internalType": "string",
              "name": "file_type",
              "type": "string"
            },
            {
              "internalType": "string[]",
              "name": "models_used",
              "type": "string[]"
            },
            {
              "internalType": "string[]",
              "name": "libraries_used",
              "type": "string[]"
            },
            {
              "internalType": "uint256",
              "name": "timestamp",
              "type": "uint256"
            }
          ],
          "indexed": false,
          "internalType": "struct DataSetPortal.DatasetObj",
          "name": "dataset",
          "type": "tuple"
        }
      ],
      "name": "NewDataset",
      "type": "event"
    },
    {
      "inputs": [],
      "name": "getAllDatasets",
      "outputs": [
        {
          "components": [
            {
              "internalType": "address",
              "name": "user_address",
              "type": "address"
            },
            {
              "internalType": "string",
              "name": "name",
              "type": "string"
            },
            {
              "internalType": "int256",
              "name": "size",
              "type": "int256"
            },
            {
              "internalType": "string",
              "name": "accuracy_score",
              "type": "string"
            },
            {
              "internalType": "string",
              "name": "data_type",
              "type": "string"
            },
            {
              "internalType": "string",
              "name": "file_type",
              "type": "string"
            },
            {
              "internalType": "string[]",
              "name": "models_used",
              "type": "string[]"
            },
            {
              "internalType": "string[]",
              "name": "libraries_used",
              "type": "string[]"
            },
            {
              "internalType": "uint256",
              "name": "timestamp",
              "type": "uint256"
            }
          ],
          "internalType": "struct DataSetPortal.DatasetObj[]",
          "name": "",
          "type": "tuple[]"
        }
      ],
      "stateMutability": "view",
      "type": "function"
    },
    {
      "inputs": [],
      "name": "getTotalNumbers",
      "outputs": [
        {
          "components": [
            {
              "internalType": "int256",
              "name": "numberOfDataset",
              "type": "int256"
            },
            {
              "internalType": "int256",
              "name": "size",
              "type": "int256"
            }
          ],
          "internalType": "struct DataSetPortal.Total",
          "name": "",
          "type": "tuple"
        }
      ],
      "stateMutability": "view",
      "type": "function"
    },
    {
      "inputs": [
        {
          "internalType": "address",
          "name": "",
          "type": "address"
        }
      ],
      "name": "lastUploadAt",
      "outputs": [
        {
          "internalType": "uint256",
          "name": "",
          "type": "uint256"
        }
      ],
      "stateMutability": "view",
      "type": "function"
    },
    {
      "inputs": [
        {
          "internalType": "string",
          "name": "name",
          "type": "string"
        },
        {
          "internalType": "int256",
          "name": "size",
          "type": "int256"
        },
        {
          "internalType": "string",
          "name": "accuracy_score",
          "type": "string"
        },
        {
          "internalType": "string",
          "name": "data_type",
          "type": "string"
        },
        {
          "internalType": "string",
          "name": "file_type",
          "type": "string"
        },
        {
          "internalType": "string[]",
          "name": "models_used",
          "type": "string[]"
        },
        {
          "internalType": "string[]",
          "name": "libraries_used",
          "type": "string[]"
        }
      ],
      "name": "upload_dataset_details",
      "outputs": [],
      "stateMutability": "nonpayable",
      "type": "function"
    }
  ],
  "bytecode": "0x60806040526200003360405180606001604052806026815260200162001e92602691396200006860201b620009ec1760201c565b6200006260405180606001604052806026815260200162001e6c602691396200006860201b620009ec1760201c565b620001f2565b62000108816040516024016200007f9190620001ce565b6040516020818303038152906040527f41304fac000000000000000000000000000000000000000000000000000000007bffffffffffffffffffffffffffffffffffffffffffffffffffffffff19166020820180517bffffffffffffffffffffffffffffffffffffffffffffffffffffffff83818316178352505050506200010b60201b60201c565b50565b60008151905060006a636f6e736f6c652e6c6f679050602083016000808483855afa5050505050565b600081519050919050565b600082825260208201905092915050565b60005b838110156200017057808201518184015260208101905062000153565b60008484015250505050565b6000601f19601f8301169050919050565b60006200019a8262000134565b620001a681856200013f565b9350620001b881856020860162000150565b620001c3816200017c565b840191505092915050565b60006020820190508181036000830152620001ea81846200018d565b905092915050565b611c6a80620002026000396000f3fe608060405234801561001057600080fd5b506004361061004c5760003560e01c80633d55a754146100515780634d72cd121461006f578063ac4da7171461008d578063e6df4a68146100a9575b600080fd5b6100596100d9565b6040516100669190610e23565b60405180910390f35b6100776100ff565b6040516100849190611194565b60405180910390f35b6100a760048036038101906100a29190611411565b6105c3565b005b6100c360048036038101906100be9190611587565b6109d4565b6040516100d091906115c3565b60405180910390f35b6100e1610c85565b60405180604001604052806000548152602001600154815250905090565b60606002805480602002602001604051908101604052809291908181526020016000905b828210156105ba5783829060005260206000209060090201604051806101200160405290816000820160009054906101000a900473ffffffffffffffffffffffffffffffffffffffff1673ffffffffffffffffffffffffffffffffffffffff1673ffffffffffffffffffffffffffffffffffffffff1681526020016001820180546101ad9061160d565b80601f01602080910402602001604051908101604052809291908181526020018280546101d99061160d565b80156102265780601f106101fb57610100808354040283529160200191610226565b820191906000526020600020905b81548152906001019060200180831161020957829003601f168201915b50505050508152602001600282015481526020016003820180546102499061160d565b80601f01602080910402602001604051908101604052809291908181526020018280546102759061160d565b80156102c25780601f10610297576101008083540402835291602001916102c2565b820191906000526020600020905b8154815290600101906020018083116102a557829003601f168201915b505050505081526020016004820180546102db9061160d565b80601f01602080910402602001604051908101604052809291908181526020018280546103079061160d565b80156103545780601f1061032957610100808354040283529160200191610354565b820191906000526020600020905b81548152906001019060200180831161033757829003601f168201915b5050505050815260200160058201805461036d9061160d565b80601f01602080910402602001604051908101604052809291908181526020018280546103999061160d565b80156103e65780601f106103bb576101008083540402835291602001916103e6565b820191906000526020600020905b8154815290600101906020018083116103c957829003601f168201915b5050505050815260200160068201805480602002602001604051908101604052809291908181526020016000905b828210156104c05783829060005260206000200180546104339061160d565b80601f016020809104026020016040519081016040528092919081815260200182805461045f9061160d565b80156104ac5780601f10610481576101008083540402835291602001916104ac565b820191906000526020600020905b81548152906001019060200180831161048f57829003601f168201915b505050505081526020019060010190610414565b50505050815260200160078201805480602002602001604051908101604052809291908181526020016000905b8282101561059957838290600052602060002001805461050c9061160d565b80601f01602080910402602001604051908101604052809291908181526020018280546105389061160d565b80156105855780601f1061055a57610100808354040283529160200191610585565b820191906000526020600020905b81548152906001019060200180831161056857829003601f168201915b5050505050815260200190600101906104ed565b50505050815260200160088201548152505081526020019060010190610123565b50505050905090565b6106016040518060400160405280601681526020017f75706c6f61645f646174617365745f64657461696c73000000000000000000008152506109ec565b42600f600360003373ffffffffffffffffffffffffffffffffffffffff1673ffffffffffffffffffffffffffffffffffffffff1681526020019081526020016000205461064e919061166d565b1061068e576040517f08c379a000000000000000000000000000000000000000000000000000000000815260040161068590611724565b60405180910390fd5b42600360003373ffffffffffffffffffffffffffffffffffffffff1673ffffffffffffffffffffffffffffffffffffffff168152602001908152602001600020819055506106da610c9f565b87816020018190525086816040018181525050858160600181905250848160800181905250838160a00181905250828160c00181905250818160e0018190525061075d6040518060400160405280601781526020017f5f64617461736574496e7075742e6e616d65203a2025730000000000000000008152508260200151610a85565b6107a16040518060400160405280601e81526020017f25732073656e64657220772f2061636375726163792073636f72652025730000815250338360600151610b21565b6107e56040518060400160405280601781526020017f6d6f64656c735f757365642e6c656e677468203a2025730000000000000000008152508260c0015151610bc0565b33816000019073ffffffffffffffffffffffffffffffffffffffff16908173ffffffffffffffffffffffffffffffffffffffff16815250504281610100018181525050600281908060018154018082558091505060019003906000526020600020906009020160009091909190915060008201518160000160006101000a81548173ffffffffffffffffffffffffffffffffffffffff021916908373ffffffffffffffffffffffffffffffffffffffff16021790555060208201518160010190816108b091906118f0565b506040820151816002015560608201518160030190816108d091906118f0565b5060808201518160040190816108e691906118f0565b5060a08201518160050190816108fc91906118f0565b5060c0820151816006019080519060200190610919929190610d01565b5060e0820151816007019080519060200190610936929190610d01565b5061010082015181600801555050600160008082825461095691906119c2565b9250508190555080604001516001600082825461097391906119c2565b925050819055503373ffffffffffffffffffffffffffffffffffffffff167fb2ddafab57e109d736ac23af4e37978eddbed3a37b1c814bd8f82ef2fe992b0b42836040516109c2929190611aee565b60405180910390a25050505050505050565b60036020528060005260406000206000915090505481565b610a8281604051602401610a009190611b57565b6040516020818303038152906040527f41304fac000000000000000000000000000000000000000000000000000000007bffffffffffffffffffffffffffffffffffffffffffffffffffffffff19166020820180517bffffffffffffffffffffffffffffffffffffffffffffffffffffffff8381831617835250505050610c5c565b50565b610b1d8282604051602401610a9b929190611b79565b6040516020818303038152906040527f4b5c4277000000000000000000000000000000000000000000000000000000007bffffffffffffffffffffffffffffffffffffffffffffffffffffffff19166020820180517bffffffffffffffffffffffffffffffffffffffffffffffffffffffff8381831617835250505050610c5c565b5050565b610bbb838383604051602401610b3993929190611bbf565b6040516020818303038152906040527fe0e9ad4f000000000000000000000000000000000000000000000000000000007bffffffffffffffffffffffffffffffffffffffffffffffffffffffff19166020820180517bffffffffffffffffffffffffffffffffffffffffffffffffffffffff8381831617835250505050610c5c565b505050565b610c588282604051602401610bd6929190611c04565b6040516020818303038152906040527fb60e72cc000000000000000000000000000000000000000000000000000000007bffffffffffffffffffffffffffffffffffffffffffffffffffffffff19166020820180517bffffffffffffffffffffffffffffffffffffffffffffffffffffffff8381831617835250505050610c5c565b5050565b60008151905060006a636f6e736f6c652e6c6f679050602083016000808483855afa5050505050565b604051806040016040528060008152602001600081525090565b604051806101200160405280600073ffffffffffffffffffffffffffffffffffffffff16815260200160608152602001600081526020016060815260200160608152602001606081526020016060815260200160608152602001600081525090565b828054828255906000526020600020908101928215610d49579160200282015b82811115610d48578251829081610d3891906118f0565b5091602001919060010190610d21565b5b509050610d569190610d5a565b5090565b5b80821115610d7a5760008181610d719190610d7e565b50600101610d5b565b5090565b508054610d8a9061160d565b6000825580601f10610d9c5750610dbb565b601f016020900490600052602060002090810190610dba9190610dbe565b5b50565b5b80821115610dd7576000816000905550600101610dbf565b5090565b6000819050919050565b610dee81610ddb565b82525050565b604082016000820151610e0a6000850182610de5565b506020820151610e1d6020850182610de5565b50505050565b6000604082019050610e386000830184610df4565b92915050565b600081519050919050565b600082825260208201905092915050565b6000819050602082019050919050565b600073ffffffffffffffffffffffffffffffffffffffff82169050919050565b6000610e9582610e6a565b9050919050565b610ea581610e8a565b82525050565b600081519050919050565b600082825260208201905092915050565b60005b83811015610ee5578082015181840152602081019050610eca565b60008484015250505050565b6000601f19601f8301169050919050565b6000610f0d82610eab565b610f178185610eb6565b9350610f27818560208601610ec7565b610f3081610ef1565b840191505092915050565b600081519050919050565b600082825260208201905092915050565b6000819050602082019050919050565b6000610f738383610f02565b905092915050565b6000602082019050919050565b6000610f9382610f3b565b610f9d8185610f46565b935083602082028501610faf85610f57565b8060005b85811015610feb5784840389528151610fcc8582610f67565b9450610fd783610f7b565b925060208a01995050600181019050610fb3565b50829750879550505050505092915050565b6000819050919050565b61101081610ffd565b82525050565b60006101208301600083015161102f6000860182610e9c565b50602083015184820360208601526110478282610f02565b915050604083015161105c6040860182610de5565b50606083015184820360608601526110748282610f02565b9150506080830151848203608086015261108e8282610f02565b91505060a083015184820360a08601526110a88282610f02565b91505060c083015184820360c08601526110c28282610f88565b91505060e083015184820360e08601526110dc8282610f88565b9150506101008301516110f3610100860182611007565b508091505092915050565b600061110a8383611016565b905092915050565b6000602082019050919050565b600061112a82610e3e565b6111348185610e49565b93508360208202850161114685610e5a565b8060005b85811015611182578484038952815161116385826110fe565b945061116e83611112565b925060208a0199505060018101905061114a565b50829750879550505050505092915050565b600060208201905081810360008301526111ae818461111f565b905092915050565b6000604051905090565b600080fd5b600080fd5b600080fd5b600080fd5b7f4e487b7100000000000000000000000000000000000000000000000000000000600052604160045260246000fd5b61120c82610ef1565b810181811067ffffffffffffffff8211171561122b5761122a6111d4565b5b80604052505050565b600061123e6111b6565b905061124a8282611203565b919050565b600067ffffffffffffffff82111561126a576112696111d4565b5b61127382610ef1565b9050602081019050919050565b82818337600083830152505050565b60006112a261129d8461124f565b611234565b9050828152602081018484840111156112be576112bd6111cf565b5b6112c9848285611280565b509392505050565b600082601f8301126112e6576112e56111ca565b5b81356112f684826020860161128f565b91505092915050565b61130881610ddb565b811461131357600080fd5b50565b600081359050611325816112ff565b92915050565b600067ffffffffffffffff821115611346576113456111d4565b5b602082029050602081019050919050565b600080fd5b600061136f61136a8461132b565b611234565b9050808382526020820190506020840283018581111561139257611391611357565b5b835b818110156113d957803567ffffffffffffffff8111156113b7576113b66111ca565b5b8086016113c489826112d1565b85526020850194505050602081019050611394565b5050509392505050565b600082601f8301126113f8576113f76111ca565b5b813561140884826020860161135c565b91505092915050565b600080600080600080600060e0888a0312156114305761142f6111c0565b5b600088013567ffffffffffffffff81111561144e5761144d6111c5565b5b61145a8a828b016112d1565b975050602061146b8a828b01611316565b965050604088013567ffffffffffffffff81111561148c5761148b6111c5565b5b6114988a828b016112d1565b955050606088013567ffffffffffffffff8111156114b9576114b86111c5565b5b6114c58a828b016112d1565b945050608088013567ffffffffffffffff8111156114e6576114e56111c5565b5b6114f28a828b016112d1565b93505060a088013567ffffffffffffffff811115611513576115126111c5565b5b61151f8a828b016113e3565b92505060c088013567ffffffffffffffff8111156115405761153f6111c5565b5b61154c8a828b016113e3565b91505092959891949750929550565b61156481610e8a565b811461156f57600080fd5b50565b6000813590506115818161155b565b92915050565b60006020828403121561159d5761159c6111c0565b5b60006115ab84828501611572565b91505092915050565b6115bd81610ffd565b82525050565b60006020820190506115d860008301846115b4565b92915050565b7f4e487b7100000000000000000000000000000000000000000000000000000000600052602260045260246000fd5b6000600282049050600182168061162557607f821691505b602082108103611638576116376115de565b5b50919050565b7f4e487b7100000000000000000000000000000000000000000000000000000000600052601160045260246000fd5b600061167882610ffd565b915061168383610ffd565b925082820190508082111561169b5761169a61163e565b5b92915050565b600082825260208201905092915050565b7f4d7573742077616974203330207365636f6e6473206265666f72652075706c6160008201527f6f64696e6720616761696e2e0000000000000000000000000000000000000000602082015250565b600061170e602c836116a1565b9150611719826116b2565b604082019050919050565b6000602082019050818103600083015261173d81611701565b9050919050565b60008190508160005260206000209050919050565b60006020601f8301049050919050565b600082821b905092915050565b6000600883026117a67fffffffffffffffffffffffffffffffffffffffffffffffffffffffffffffffff82611769565b6117b08683611769565b95508019841693508086168417925050509392505050565b6000819050919050565b60006117ed6117e86117e384610ffd565b6117c8565b610ffd565b9050919050565b6000819050919050565b611807836117d2565b61181b611813826117f4565b848454611776565b825550505050565b600090565b611830611823565b61183b8184846117fe565b505050565b5b8181101561185f57611854600082611828565b600181019050611841565b5050565b601f8211156118a45761187581611744565b61187e84611759565b8101602085101561188d578190505b6118a161189985611759565b830182611840565b50505b505050565b600082821c905092915050565b60006118c7600019846008026118a9565b1980831691505092915050565b60006118e083836118b6565b9150826002028217905092915050565b6118f982610eab565b67ffffffffffffffff811115611912576119116111d4565b5b61191c825461160d565b611927828285611863565b600060209050601f83116001811461195a5760008415611948578287015190505b61195285826118d4565b8655506119ba565b601f19841661196886611744565b60005b828110156119905784890151825560018201915060208501945060208101905061196b565b868310156119ad57848901516119a9601f8916826118b6565b8355505b6001600288020188555050505b505050505050565b60006119cd82610ddb565b91506119d883610ddb565b925082820190508281121560008312168382126000841215161715611a00576119ff61163e565b5b92915050565b600061012083016000830151611a1f6000860182610e9c565b5060208301518482036020860152611a378282610f02565b9150506040830151611a4c6040860182610de5565b5060608301518482036060860152611a648282610f02565b91505060808301518482036080860152611a7e8282610f02565b91505060a083015184820360a0860152611a988282610f02565b91505060c083015184820360c0860152611ab28282610f88565b91505060e083015184820360e0860152611acc8282610f88565b915050610100830151611ae3610100860182611007565b508091505092915050565b6000604082019050611b0360008301856115b4565b8181036020830152611b158184611a06565b90509392505050565b6000611b2982610eab565b611b3381856116a1565b9350611b43818560208601610ec7565b611b4c81610ef1565b840191505092915050565b60006020820190508181036000830152611b718184611b1e565b905092915050565b60006040820190508181036000830152611b938185611b1e565b90508181036020830152611ba78184611b1e565b90509392505050565b611bb981610e8a565b82525050565b60006060820190508181036000830152611bd98186611b1e565b9050611be86020830185611bb0565b8181036040830152611bfa8184611b1e565b9050949350505050565b60006040820190508181036000830152611c1e8185611b1e565b9050611c2d60208301846115b4565b939250505056fea264697066735822122098beae8edcf131e5eeb1228050297b98800c52a4b518978ef1150c62d6deeaf364736f6c63430008110033596f20796f2c204920616d206120636f6e747261637420616e64204920616d20736d6172740a4920414d20534d41525420434f4e54524143542e20504f472e20416e642070617961626c652e",
  "linkReferences": {},
  "deployedLinkReferences": {}
}