{
  "_format": "hh-sol-artifact-1",
  "contractName": "DataSetPortal",
  "sourceName": "contracts/DataSetPortal.sol",
  "abi": [
    {
      "inputs": [],
      "stateMutability": "payable",
      "type": "constructor"
    },
    {
      "anonymous": false,
      "inputs": [
        {
          "indexed": true,
          "internalType": "address",
          "name": "from",
          "type": "address"
        },
        {
          "indexed": false,
          "internalType": "uint256",
          "name": "timestamp",
          "type": "uint256"
        },
        {
          "components": [
            {
              "internalType": "address",
              "name": "user_address",
              "type": "address"
            },
            {
              "internalType": "string",
              "name": "name",
              "type": "string"
            },
            {
              "internalType": "uint256",
              "name": "size",
              "type": "uint256"
            },
            {
              "internalType": "string",
              "name": "accuracy_score",
              "type": "string"
            },
            {
              "internalType": "string",
              "name": "data_type",
              "type": "string"
            },
            {
              "internalType": "string",
              "name": "file_type",
              "type": "string"
            },
            {
              "internalType": "string[]",
              "name": "models_used",
              "type": "string[]"
            },
            {
              "internalType": "string[]",
              "name": "libraries_used",
              "type": "string[]"
            },
            {
              "internalType": "uint256",
              "name": "timestamp",
              "type": "uint256"
            }
          ],
          "indexed": false,
          "internalType": "struct DataSetPortal.DatasetObj",
          "name": "dataset",
          "type": "tuple"
        }
      ],
      "name": "NewDataset",
      "type": "event"
    },
    {
      "inputs": [],
      "name": "getAllDatasets",
      "outputs": [
        {
          "components": [
            {
              "internalType": "address",
              "name": "user_address",
              "type": "address"
            },
            {
              "internalType": "string",
              "name": "name",
              "type": "string"
            },
            {
              "internalType": "uint256",
              "name": "size",
              "type": "uint256"
            },
            {
              "internalType": "string",
              "name": "accuracy_score",
              "type": "string"
            },
            {
              "internalType": "string",
              "name": "data_type",
              "type": "string"
            },
            {
              "internalType": "string",
              "name": "file_type",
              "type": "string"
            },
            {
              "internalType": "string[]",
              "name": "models_used",
              "type": "string[]"
            },
            {
              "internalType": "string[]",
              "name": "libraries_used",
              "type": "string[]"
            },
            {
              "internalType": "uint256",
              "name": "timestamp",
              "type": "uint256"
            }
          ],
          "internalType": "struct DataSetPortal.DatasetObj[]",
          "name": "",
          "type": "tuple[]"
        }
      ],
      "stateMutability": "view",
      "type": "function"
    },
    {
      "inputs": [],
      "name": "getTotalNumbers",
      "outputs": [
        {
          "components": [
            {
              "internalType": "uint256",
              "name": "numberOfDataset",
              "type": "uint256"
            },
            {
              "internalType": "uint256",
              "name": "size",
              "type": "uint256"
            }
          ],
          "internalType": "struct DataSetPortal.Total",
          "name": "",
          "type": "tuple"
        }
      ],
      "stateMutability": "view",
      "type": "function"
    },
    {
      "inputs": [
        {
          "internalType": "address",
          "name": "",
          "type": "address"
        }
      ],
      "name": "lastUploadAt",
      "outputs": [
        {
          "internalType": "uint256",
          "name": "",
          "type": "uint256"
        }
      ],
      "stateMutability": "view",
      "type": "function"
    },
    {
      "inputs": [
        {
          "internalType": "string",
          "name": "name",
          "type": "string"
        },
        {
          "internalType": "uint256",
          "name": "size",
          "type": "uint256"
        },
        {
          "internalType": "string",
          "name": "accuracy_score",
          "type": "string"
        },
        {
          "internalType": "string",
          "name": "data_type",
          "type": "string"
        },
        {
          "internalType": "string",
          "name": "file_type",
          "type": "string"
        },
        {
          "internalType": "string[]",
          "name": "models_used",
          "type": "string[]"
        },
        {
          "internalType": "string[]",
          "name": "libraries_used",
          "type": "string[]"
        }
      ],
      "name": "upload_dataset_details",
      "outputs": [],
      "stateMutability": "nonpayable",
      "type": "function"
    }
  ],
  "bytecode": "0x60806040526200003360405180606001604052806026815260200162001f2f602691396200008a60201b620009e91760201c565b6200006260405180606001604052806026815260200162001f09602691396200008a60201b620009e91760201c565b606444426200007291906200018f565b6200007e9190620001f9565b600281905550620002ef565b6200012a81604051602401620000a19190620002cb565b6040516020818303038152906040527f41304fac000000000000000000000000000000000000000000000000000000007bffffffffffffffffffffffffffffffffffffffffffffffffffffffff19166020820180517bffffffffffffffffffffffffffffffffffffffffffffffffffffffff83818316178352505050506200012d60201b60201c565b50565b60008151905060006a636f6e736f6c652e6c6f679050602083016000808483855afa5050505050565b6000819050919050565b7f4e487b7100000000000000000000000000000000000000000000000000000000600052601160045260246000fd5b60006200019c8262000156565b9150620001a98362000156565b9250828201905080821115620001c457620001c362000160565b5b92915050565b7f4e487b7100000000000000000000000000000000000000000000000000000000600052601260045260246000fd5b6000620002068262000156565b9150620002138362000156565b925082620002265762000225620001ca565b5b828206905092915050565b600081519050919050565b600082825260208201905092915050565b60005b838110156200026d57808201518184015260208101905062000250565b60008484015250505050565b6000601f19601f8301169050919050565b6000620002978262000231565b620002a381856200023c565b9350620002b58185602086016200024d565b620002c08162000279565b840191505092915050565b60006020820190508181036000830152620002e781846200028a565b905092915050565b611c0a80620002ff6000396000f3fe608060405234801561001057600080fd5b506004361061004c5760003560e01c80633d55a754146100515780634d72cd121461006f578063aa5c7f9e1461008d578063e6df4a68146100a9575b600080fd5b6100596100d9565b6040516100669190610e20565b60405180910390f35b610077610140565b6040516100849190611178565b60405180910390f35b6100a760048036038101906100a291906113f5565b610604565b005b6100c360048036038101906100be919061156b565b6109d1565b6040516100d091906115a7565b60405180910390f35b6100e1610c82565b6101226040518060400160405280601a81526020017f5765206861766520256420746f74616c20646174617365747321000000000000815250600054610a82565b60405180604001604052806000548152602001600154815250905090565b60606003805480602002602001604051908101604052809291908181526020016000905b828210156105fb5783829060005260206000209060090201604051806101200160405290816000820160009054906101000a900473ffffffffffffffffffffffffffffffffffffffff1673ffffffffffffffffffffffffffffffffffffffff1673ffffffffffffffffffffffffffffffffffffffff1681526020016001820180546101ee906115f1565b80601f016020809104026020016040519081016040528092919081815260200182805461021a906115f1565b80156102675780601f1061023c57610100808354040283529160200191610267565b820191906000526020600020905b81548152906001019060200180831161024a57829003601f168201915b505050505081526020016002820154815260200160038201805461028a906115f1565b80601f01602080910402602001604051908101604052809291908181526020018280546102b6906115f1565b80156103035780601f106102d857610100808354040283529160200191610303565b820191906000526020600020905b8154815290600101906020018083116102e657829003601f168201915b5050505050815260200160048201805461031c906115f1565b80601f0160208091040260200160405190810160405280929190818152602001828054610348906115f1565b80156103955780601f1061036a57610100808354040283529160200191610395565b820191906000526020600020905b81548152906001019060200180831161037857829003601f168201915b505050505081526020016005820180546103ae906115f1565b80601f01602080910402602001604051908101604052809291908181526020018280546103da906115f1565b80156104275780601f106103fc57610100808354040283529160200191610427565b820191906000526020600020905b81548152906001019060200180831161040a57829003601f168201915b5050505050815260200160068201805480602002602001604051908101604052809291908181526020016000905b82821015610501578382906000526020600020018054610474906115f1565b80601f01602080910402602001604051908101604052809291908181526020018280546104a0906115f1565b80156104ed5780601f106104c2576101008083540402835291602001916104ed565b820191906000526020600020905b8154815290600101906020018083116104d057829003601f168201915b505050505081526020019060010190610455565b50505050815260200160078201805480602002602001604051908101604052809291908181526020016000905b828210156105da57838290600052602060002001805461054d906115f1565b80601f0160208091040260200160405190810160405280929190818152602001828054610579906115f1565b80156105c65780601f1061059b576101008083540402835291602001916105c6565b820191906000526020600020905b8154815290600101906020018083116105a957829003601f168201915b50505050508152602001906001019061052e565b50505050815260200160088201548152505081526020019060010190610164565b50505050905090565b6106426040518060400160405280601681526020017f75706c6f61645f646174617365745f64657461696c73000000000000000000008152506109e9565b42600f600460003373ffffffffffffffffffffffffffffffffffffffff1673ffffffffffffffffffffffffffffffffffffffff1681526020019081526020016000205461068f9190611651565b106106cf576040517f08c379a00000000000000000000000000000000000000000000000000000000081526004016106c690611708565b60405180910390fd5b42600460003373ffffffffffffffffffffffffffffffffffffffff1673ffffffffffffffffffffffffffffffffffffffff1681526020019081526020016000208190555061071b610c9c565b87816020018190525086816040018181525050858160600181905250848160800181905250838160a00181905250828160c00181905250818160e0018190525061079e6040518060400160405280601781526020017f5f64617461736574496e7075742e6e616d65203a2025730000000000000000008152508260200151610b1e565b6107e26040518060400160405280601e81526020017f25732073656e64657220772f2061636375726163792073636f72652025730000815250338360600151610bba565b33816000019073ffffffffffffffffffffffffffffffffffffffff16908173ffffffffffffffffffffffffffffffffffffffff16815250504281610100018181525050600381908060018154018082558091505060019003906000526020600020906009020160009091909190915060008201518160000160006101000a81548173ffffffffffffffffffffffffffffffffffffffff021916908373ffffffffffffffffffffffffffffffffffffffff16021790555060208201518160010190816108ad91906118d4565b506040820151816002015560608201518160030190816108cd91906118d4565b5060808201518160040190816108e391906118d4565b5060a08201518160050190816108f991906118d4565b5060c0820151816006019080519060200190610916929190610cfe565b5060e0820151816007019080519060200190610933929190610cfe565b506101008201518160080155505060016000808282546109539190611651565b925050819055508060400151600160008282546109709190611651565b925050819055503373ffffffffffffffffffffffffffffffffffffffff167fc379167ba41b5e3dc0b30a97d9d320e6aad25ae1c03e58c55f1b05da55e1ab2342836040516109bf929190611a8e565b60405180910390a25050505050505050565b60046020528060005260406000206000915090505481565b610a7f816040516024016109fd9190611af7565b6040516020818303038152906040527f41304fac000000000000000000000000000000000000000000000000000000007bffffffffffffffffffffffffffffffffffffffffffffffffffffffff19166020820180517bffffffffffffffffffffffffffffffffffffffffffffffffffffffff8381831617835250505050610c59565b50565b610b1a8282604051602401610a98929190611b19565b6040516020818303038152906040527fb60e72cc000000000000000000000000000000000000000000000000000000007bffffffffffffffffffffffffffffffffffffffffffffffffffffffff19166020820180517bffffffffffffffffffffffffffffffffffffffffffffffffffffffff8381831617835250505050610c59565b5050565b610bb68282604051602401610b34929190611b49565b6040516020818303038152906040527f4b5c4277000000000000000000000000000000000000000000000000000000007bffffffffffffffffffffffffffffffffffffffffffffffffffffffff19166020820180517bffffffffffffffffffffffffffffffffffffffffffffffffffffffff8381831617835250505050610c59565b5050565b610c54838383604051602401610bd293929190611b8f565b6040516020818303038152906040527fe0e9ad4f000000000000000000000000000000000000000000000000000000007bffffffffffffffffffffffffffffffffffffffffffffffffffffffff19166020820180517bffffffffffffffffffffffffffffffffffffffffffffffffffffffff8381831617835250505050610c59565b505050565b60008151905060006a636f6e736f6c652e6c6f679050602083016000808483855afa5050505050565b604051806040016040528060008152602001600081525090565b604051806101200160405280600073ffffffffffffffffffffffffffffffffffffffff16815260200160608152602001600081526020016060815260200160608152602001606081526020016060815260200160608152602001600081525090565b828054828255906000526020600020908101928215610d46579160200282015b82811115610d45578251829081610d3591906118d4565b5091602001919060010190610d1e565b5b509050610d539190610d57565b5090565b5b80821115610d775760008181610d6e9190610d7b565b50600101610d58565b5090565b508054610d87906115f1565b6000825580601f10610d995750610db8565b601f016020900490600052602060002090810190610db79190610dbb565b5b50565b5b80821115610dd4576000816000905550600101610dbc565b5090565b6000819050919050565b610deb81610dd8565b82525050565b604082016000820151610e076000850182610de2565b506020820151610e1a6020850182610de2565b50505050565b6000604082019050610e356000830184610df1565b92915050565b600081519050919050565b600082825260208201905092915050565b6000819050602082019050919050565b600073ffffffffffffffffffffffffffffffffffffffff82169050919050565b6000610e9282610e67565b9050919050565b610ea281610e87565b82525050565b600081519050919050565b600082825260208201905092915050565b60005b83811015610ee2578082015181840152602081019050610ec7565b60008484015250505050565b6000601f19601f8301169050919050565b6000610f0a82610ea8565b610f148185610eb3565b9350610f24818560208601610ec4565b610f2d81610eee565b840191505092915050565b600081519050919050565b600082825260208201905092915050565b6000819050602082019050919050565b6000610f708383610eff565b905092915050565b6000602082019050919050565b6000610f9082610f38565b610f9a8185610f43565b935083602082028501610fac85610f54565b8060005b85811015610fe85784840389528151610fc98582610f64565b9450610fd483610f78565b925060208a01995050600181019050610fb0565b50829750879550505050505092915050565b6000610120830160008301516110136000860182610e99565b506020830151848203602086015261102b8282610eff565b91505060408301516110406040860182610de2565b50606083015184820360608601526110588282610eff565b915050608083015184820360808601526110728282610eff565b91505060a083015184820360a086015261108c8282610eff565b91505060c083015184820360c08601526110a68282610f85565b91505060e083015184820360e08601526110c08282610f85565b9150506101008301516110d7610100860182610de2565b508091505092915050565b60006110ee8383610ffa565b905092915050565b6000602082019050919050565b600061110e82610e3b565b6111188185610e46565b93508360208202850161112a85610e57565b8060005b85811015611166578484038952815161114785826110e2565b9450611152836110f6565b925060208a0199505060018101905061112e565b50829750879550505050505092915050565b600060208201905081810360008301526111928184611103565b905092915050565b6000604051905090565b600080fd5b600080fd5b600080fd5b600080fd5b7f4e487b7100000000000000000000000000000000000000000000000000000000600052604160045260246000fd5b6111f082610eee565b810181811067ffffffffffffffff8211171561120f5761120e6111b8565b5b80604052505050565b600061122261119a565b905061122e82826111e7565b919050565b600067ffffffffffffffff82111561124e5761124d6111b8565b5b61125782610eee565b9050602081019050919050565b82818337600083830152505050565b600061128661128184611233565b611218565b9050828152602081018484840111156112a2576112a16111b3565b5b6112ad848285611264565b509392505050565b600082601f8301126112ca576112c96111ae565b5b81356112da848260208601611273565b91505092915050565b6112ec81610dd8565b81146112f757600080fd5b50565b600081359050611309816112e3565b92915050565b600067ffffffffffffffff82111561132a576113296111b8565b5b602082029050602081019050919050565b600080fd5b600061135361134e8461130f565b611218565b905080838252602082019050602084028301858111156113765761137561133b565b5b835b818110156113bd57803567ffffffffffffffff81111561139b5761139a6111ae565b5b8086016113a889826112b5565b85526020850194505050602081019050611378565b5050509392505050565b600082601f8301126113dc576113db6111ae565b5b81356113ec848260208601611340565b91505092915050565b600080600080600080600060e0888a031215611414576114136111a4565b5b600088013567ffffffffffffffff811115611432576114316111a9565b5b61143e8a828b016112b5565b975050602061144f8a828b016112fa565b965050604088013567ffffffffffffffff8111156114705761146f6111a9565b5b61147c8a828b016112b5565b955050606088013567ffffffffffffffff81111561149d5761149c6111a9565b5b6114a98a828b016112b5565b945050608088013567ffffffffffffffff8111156114ca576114c96111a9565b5b6114d68a828b016112b5565b93505060a088013567ffffffffffffffff8111156114f7576114f66111a9565b5b6115038a828b016113c7565b92505060c088013567ffffffffffffffff811115611524576115236111a9565b5b6115308a828b016113c7565b91505092959891949750929550565b61154881610e87565b811461155357600080fd5b50565b6000813590506115658161153f565b92915050565b600060208284031215611581576115806111a4565b5b600061158f84828501611556565b91505092915050565b6115a181610dd8565b82525050565b60006020820190506115bc6000830184611598565b92915050565b7f4e487b7100000000000000000000000000000000000000000000000000000000600052602260045260246000fd5b6000600282049050600182168061160957607f821691505b60208210810361161c5761161b6115c2565b5b50919050565b7f4e487b7100000000000000000000000000000000000000000000000000000000600052601160045260246000fd5b600061165c82610dd8565b915061166783610dd8565b925082820190508082111561167f5761167e611622565b5b92915050565b600082825260208201905092915050565b7f4d7573742077616974203330207365636f6e6473206265666f72652075706c6160008201527f6f64696e6720616761696e2e0000000000000000000000000000000000000000602082015250565b60006116f2602c83611685565b91506116fd82611696565b604082019050919050565b60006020820190508181036000830152611721816116e5565b9050919050565b60008190508160005260206000209050919050565b60006020601f8301049050919050565b600082821b905092915050565b60006008830261178a7fffffffffffffffffffffffffffffffffffffffffffffffffffffffffffffffff8261174d565b611794868361174d565b95508019841693508086168417925050509392505050565b6000819050919050565b60006117d16117cc6117c784610dd8565b6117ac565b610dd8565b9050919050565b6000819050919050565b6117eb836117b6565b6117ff6117f7826117d8565b84845461175a565b825550505050565b600090565b611814611807565b61181f8184846117e2565b505050565b5b818110156118435761183860008261180c565b600181019050611825565b5050565b601f8211156118885761185981611728565b6118628461173d565b81016020851015611871578190505b61188561187d8561173d565b830182611824565b50505b505050565b600082821c905092915050565b60006118ab6000198460080261188d565b1980831691505092915050565b60006118c4838361189a565b9150826002028217905092915050565b6118dd82610ea8565b67ffffffffffffffff8111156118f6576118f56111b8565b5b61190082546115f1565b61190b828285611847565b600060209050601f83116001811461193e576000841561192c578287015190505b61193685826118b8565b86555061199e565b601f19841661194c86611728565b60005b828110156119745784890151825560018201915060208501945060208101905061194f565b86831015611991578489015161198d601f89168261189a565b8355505b6001600288020188555050505b505050505050565b6000610120830160008301516119bf6000860182610e99565b50602083015184820360208601526119d78282610eff565b91505060408301516119ec6040860182610de2565b5060608301518482036060860152611a048282610eff565b91505060808301518482036080860152611a1e8282610eff565b91505060a083015184820360a0860152611a388282610eff565b91505060c083015184820360c0860152611a528282610f85565b91505060e083015184820360e0860152611a6c8282610f85565b915050610100830151611a83610100860182610de2565b508091505092915050565b6000604082019050611aa36000830185611598565b8181036020830152611ab581846119a6565b90509392505050565b6000611ac982610ea8565b611ad38185611685565b9350611ae3818560208601610ec4565b611aec81610eee565b840191505092915050565b60006020820190508181036000830152611b118184611abe565b905092915050565b60006040820190508181036000830152611b338185611abe565b9050611b426020830184611598565b9392505050565b60006040820190508181036000830152611b638185611abe565b90508181036020830152611b778184611abe565b90509392505050565b611b8981610e87565b82525050565b60006060820190508181036000830152611ba98186611abe565b9050611bb86020830185611b80565b8181036040830152611bca8184611abe565b905094935050505056fea2646970667358221220dd0625f6a064a94b803d431215a30bad4b660d699df4b4fc1a3179437cda0b2b64736f6c63430008110033596f20796f2c204920616d206120636f6e747261637420616e64204920616d20736d6172740a4920414d20534d41525420434f4e54524143542e20504f472e20416e642070617961626c652e",
  "linkReferences": {},
  "deployedLinkReferences": {}
}